{
  "address": "0xf1a0969D643A3444ceA75BC29D5a9eF59B16F879",
  "abi": [
    {
      "inputs": [],
      "stateMutability": "nonpayable",
      "type": "constructor"
    },
    {
      "inputs": [
        {
          "internalType": "address",
          "name": "_ISBN",
          "type": "address"
        },
        {
          "internalType": "string",
          "name": "_title",
          "type": "string"
        },
        {
          "internalType": "uint256",
          "name": "_year",
          "type": "uint256"
        },
        {
          "internalType": "string",
          "name": "_author",
          "type": "string"
        }
      ],
      "name": "addBook",
      "outputs": [],
      "stateMutability": "nonpayable",
      "type": "function"
    },
    {
      "inputs": [
        {
          "internalType": "address",
          "name": "_ISBN",
          "type": "address"
        }
      ],
      "name": "getBookByISBN",
      "outputs": [
        {
          "internalType": "address",
          "name": "",
          "type": "address"
        },
        {
          "internalType": "string",
          "name": "",
          "type": "string"
        },
        {
          "internalType": "uint256",
          "name": "",
          "type": "uint256"
        },
        {
          "internalType": "string",
          "name": "",
          "type": "string"
        }
      ],
      "stateMutability": "view",
      "type": "function"
    },
    {
      "inputs": [],
      "name": "getLibraryLength",
      "outputs": [
        {
          "internalType": "uint256",
          "name": "",
          "type": "uint256"
        }
      ],
      "stateMutability": "view",
      "type": "function"
    },
    {
      "inputs": [],
      "name": "getLogs",
      "outputs": [
        {
          "components": [
            {
              "internalType": "string",
              "name": "action",
              "type": "string"
            },
            {
              "internalType": "address",
              "name": "ISBN",
              "type": "address"
            },
            {
              "internalType": "bool",
              "name": "success",
              "type": "bool"
            }
          ],
          "internalType": "struct Library.Log[]",
          "name": "",
          "type": "tuple[]"
        }
      ],
      "stateMutability": "view",
      "type": "function"
    },
    {
      "inputs": [
        {
          "internalType": "address",
          "name": "_ISBN",
          "type": "address"
        }
      ],
      "name": "removeBook",
      "outputs": [],
      "stateMutability": "nonpayable",
      "type": "function"
    },
    {
      "inputs": [
        {
          "internalType": "address",
          "name": "_ISBN",
          "type": "address"
        },
        {
          "internalType": "string",
          "name": "_title",
          "type": "string"
        },
        {
          "internalType": "uint256",
          "name": "_year",
          "type": "uint256"
        },
        {
          "internalType": "string",
          "name": "_author",
          "type": "string"
        }
      ],
      "name": "updateBook",
      "outputs": [],
      "stateMutability": "nonpayable",
      "type": "function"
    }
  ],
  "transactionHash": "0xf0c7844bf3948d4704e99283023c24da76a14b7893f63f83ab89bc48f2b295b3",
  "args": [],
  "numDeployments": 1,
  "solcInputHash": "bd93612dfc03621ef9b6a9bd88578a23",
  "bytecode": "0x608060405234801561001057600080fd5b50600180546001600160a01b0319163317905561143a806100326000396000f3fe608060405234801561001057600080fd5b50600436106100625760003560e01c8063609debbb146100675780637f6d85a51461007d578063c3951f7714610092578063d3f3a019146100a5578063e125fa93146100c8578063fe290ccb146100db575b600080fd5b6000546040519081526020015b60405180910390f35b61009061008b366004610ec0565b6100f0565b005b6100906100a0366004610f4a565b61050b565b6100b86100b3366004610f4a565b6107f3565b6040516100749493929190610fb2565b6100906100d6366004610ec0565b610a0d565b6100e3610cef565b6040516100749190610ff9565b6001546001600160a01b031633146101235760405162461bcd60e51b815260040161011a90611085565b60405180910390fd5b6001600160a01b0386166101495760405162461bcd60e51b815260040161011a906110ca565b8361018e5760405162461bcd60e51b81526020600482015260156024820152745469746c652063616e6e6f7420626520656d70747960581b604482015260640161011a565b600083116101de5760405162461bcd60e51b815260206004820152601b60248201527f59656172206d7573742062652067726561746572207468616e20300000000000604482015260640161011a565b806102245760405162461bcd60e51b8152602060048201526016602482015275417574686f722063616e6e6f7420626520656d70747960501b604482015260640161011a565b60005b60005481101561044057866001600160a01b03166000828154811061024e5761024e6110f8565b60009182526020909120600490910201546001600160a01b03160361042e576040518060800160405280886001600160a01b0316815260200187878080601f016020809104026020016040519081016040528093929190818152602001838380828437600092019190915250505090825250602080820187905260408051601f870183900483028101830182528681529201919086908690819084018382808284376000920182905250939094525050805490915083908110610313576103136110f8565b600091825260209182902083516004929092020180546001600160a01b0319166001600160a01b0390921691909117815590820151600182019061035790826111a9565b50604082015160028201556060820151600382019061037690826111a9565b50506040805160a081018252600b606082019081526a55706461746520426f6f6b60a81b608083015281526001600160a01b038a166020820152600191810182905260028054928301815560008190528151919350919091026000805160206113e5833981519152019081906103ec90826111a9565b506020820151600190910180546040909301511515600160a01b026001600160a81b03199093166001600160a01b039092169190911791909117905550610503565b806104388161127f565b915050610227565b506040805160a081018252600b606082019081526a55706461746520426f6f6b60a81b608083015281526001600160a01b03881660208201526000918101829052600280546001810182559281905281519192026000805160206113e5833981519152019081906104b190826111a9565b506020820151600190910180546040938401511515600160a01b026001600160a81b03199091166001600160a01b03909316929092179190911790555162461bcd60e51b815261011a90600401611298565b505050505050565b6001546001600160a01b031633146105355760405162461bcd60e51b815260040161011a90611085565b6001600160a01b03811661055b5760405162461bcd60e51b815260040161011a906110ca565b60005b60005481101561077f57816001600160a01b031660008281548110610585576105856110f8565b60009182526020909120600490910201546001600160a01b03160361076d576000546105b3906001906112da565b81101561065f57600080546105ca906001906112da565b815481106105da576105da6110f8565b9060005260206000209060040201600082815481106105fb576105fb6110f8565b60009182526020909120825460049092020180546001600160a01b0319166001600160a01b0390921691909117815560018082019061063c908401826112f3565b50600282015481600201556003820181600301908161065b91906112f3565b5050505b6000805480610670576106706113ce565b60008281526020812060046000199093019283020180546001600160a01b0319168155906106a16001830182610e0d565b60028201600090556003820160006106b99190610e0d565b505090556040805160a081018252600b606082019081526a52656d6f766520426f6f6b60a81b608083015281526001600160a01b03841660208201526001918101829052600280549283018155600081905281519192026000805160206113e58339815191520190819061072d90826111a9565b506020820151600190910180546040909301511515600160a01b026001600160a81b03199093166001600160a01b03909216919091179190911790555050565b806107778161127f565b91505061055e565b506040805160a081018252600b606082019081526a52656d6f766520426f6f6b60a81b608083015281526001600160a01b03831660208201526000918101829052600280546001810182559281905281519192026000805160206113e5833981519152019081906104b190826111a9565b50565b600060606000606060005b6000548110156109ed57856001600160a01b031660008281548110610825576108256110f8565b60009182526020909120600490910201546001600160a01b0316036109db576000808281548110610858576108586110f8565b6000918252602091829020604080516080810190915260049092020180546001600160a01b03168252600181018054929391929184019161089890611124565b80601f01602080910402602001604051908101604052809291908181526020018280546108c490611124565b80156109115780601f106108e657610100808354040283529160200191610911565b820191906000526020600020905b8154815290600101906020018083116108f457829003601f168201915b505050505081526020016002820154815260200160038201805461093490611124565b80601f016020809104026020016040519081016040528092919081815260200182805461096090611124565b80156109ad5780601f10610982576101008083540402835291602001916109ad565b820191906000526020600020905b81548152906001019060200180831161099057829003601f168201915b5050505050815250509050806000015181602001518260400151836060015195509550955095505050610a06565b806109e58161127f565b9150506107fe565b5060405162461bcd60e51b815260040161011a90611298565b9193509193565b6001546001600160a01b03163314610a375760405162461bcd60e51b815260040161011a90611085565b6001600160a01b038616610a5d5760405162461bcd60e51b815260040161011a906110ca565b83610aa25760405162461bcd60e51b81526020600482015260156024820152745469746c652063616e6e6f7420626520656d70747960581b604482015260640161011a565b60008311610af25760405162461bcd60e51b815260206004820152601b60248201527f59656172206d7573742062652067726561746572207468616e20300000000000604482015260640161011a565b80610b385760405162461bcd60e51b8152602060048201526016602482015275417574686f722063616e6e6f7420626520656d70747960501b604482015260640161011a565b60006040518060800160405280886001600160a01b0316815260200187878080601f016020809104026020016040519081016040528093929190818152602001838380828437600092019190915250505090825250602080820187905260408051601f870183900483028101830182528681529201919086908690819084018382808284376000920182905250939094525050835460018082018655948252602091829020845160049092020180546001600160a01b0319166001600160a01b0390921691909117815590830151929390929083019150610c1990826111a9565b506040820151600282015560608201516003820190610c3890826111a9565b50506040805160a0810182526008606082019081526741646420426f6f6b60c01b608083015281526001600160a01b0389166020820152600191810182905260028054928301815560008190528151919350919091026000805160206113e583398151915201908190610cab90826111a9565b506020820151600190910180546040909301511515600160a01b026001600160a81b03199093166001600160a01b0390921691909117919091179055505050505050565b60606002805480602002602001604051908101604052809291908181526020016000905b82821015610e045783829060005260206000209060020201604051806060016040529081600082018054610d4690611124565b80601f0160208091040260200160405190810160405280929190818152602001828054610d7290611124565b8015610dbf5780601f10610d9457610100808354040283529160200191610dbf565b820191906000526020600020905b815481529060010190602001808311610da257829003601f168201915b50505091835250506001918201546001600160a01b038116602080840191909152600160a01b90910460ff161515604090920191909152918352929092019101610d13565b50505050905090565b508054610e1990611124565b6000825580601f10610e29575050565b601f0160209004906000526020600020908101906107f091905b80821115610e575760008155600101610e43565b5090565b80356001600160a01b0381168114610e7257600080fd5b919050565b60008083601f840112610e8957600080fd5b50813567ffffffffffffffff811115610ea157600080fd5b602083019150836020828501011115610eb957600080fd5b9250929050565b60008060008060008060808789031215610ed957600080fd5b610ee287610e5b565b9550602087013567ffffffffffffffff80821115610eff57600080fd5b610f0b8a838b01610e77565b9097509550604089013594506060890135915080821115610f2b57600080fd5b50610f3889828a01610e77565b979a9699509497509295939492505050565b600060208284031215610f5c57600080fd5b610f6582610e5b565b9392505050565b6000815180845260005b81811015610f9257602081850181015186830182015201610f76565b506000602082860101526020601f19601f83011685010191505092915050565b6001600160a01b0385168152608060208201819052600090610fd690830186610f6c565b8460408401528281036060840152610fee8185610f6c565b979650505050505050565b60006020808301818452808551808352604092508286019150828160051b87010184880160005b8381101561107757603f1989840301855281516060815181865261104682870182610f6c565b838b01516001600160a01b0316878c0152928901511515958901959095525094870194925090860190600101611020565b509098975050505050505050565b60208082526025908201527f4f6e6c792061646d696e2063616e20706572666f726d2074686973206f70657260408201526430ba34b7b760d91b606082015260800190565b6020808252601490820152734953424e2063616e6e6f7420626520656d70747960601b604082015260600190565b634e487b7160e01b600052603260045260246000fd5b634e487b7160e01b600052604160045260246000fd5b600181811c9082168061113857607f821691505b60208210810361115857634e487b7160e01b600052602260045260246000fd5b50919050565b601f8211156111a457600081815260208120601f850160051c810160208610156111855750805b601f850160051c820191505b8181101561050357828155600101611191565b505050565b815167ffffffffffffffff8111156111c3576111c361110e565b6111d7816111d18454611124565b8461115e565b602080601f83116001811461120c57600084156111f45750858301515b600019600386901b1c1916600185901b178555610503565b600085815260208120601f198616915b8281101561123b5788860151825594840194600190910190840161121c565b50858210156112595787850151600019600388901b60f8161c191681555b5050505050600190811b01905550565b634e487b7160e01b600052601160045260246000fd5b60006001820161129157611291611269565b5060010190565b60208082526022908201527f426f6f6b20776974682074686973204953424e20646f6573206e6f74206578696040820152611cdd60f21b606082015260800190565b818103818111156112ed576112ed611269565b92915050565b8181036112fe575050565b6113088254611124565b67ffffffffffffffff8111156113205761132061110e565b61132e816111d18454611124565b6000601f821160018114611362576000831561134a5750848201545b600019600385901b1c1916600184901b1784556113c7565b600085815260209020601f19841690600086815260209020845b8381101561139c578286015482556001958601959091019060200161137c565b50858310156113ba5781850154600019600388901b60f8161c191681555b50505060018360011b0184555b5050505050565b634e487b7160e01b600052603160045260246000fdfe405787fa12a823e0f2b7631cc41b3ba8828b3321ca811111fa75cd3aa3bb5acea26469706673582212206f7b85393bfa578307e5866ce121f9a0256e479f9f5d003fa41957b5254f232664736f6c63430008140033",
  "devdoc": {
    "kind": "dev",
    "methods": {},
    "version": 1
  },
  "userdoc": {
    "kind": "user",
    "methods": {},
    "version": 1
  },
  "storageLayout": {
    "storage": [
      {
        "astId": 14,
        "contract": "contracts/Library.sol:Library",
        "label": "books",
        "offset": 0,
        "slot": "0",
        "type": "t_array(t_struct(Book)10_storage)dyn_storage"
      },
      {
        "astId": 16,
        "contract": "contracts/Library.sol:Library",
        "label": "admin",
        "offset": 0,
        "slot": "1",
        "type": "t_address"
      },
      {
        "astId": 27,
        "contract": "contracts/Library.sol:Library",
        "label": "logs",
        "offset": 0,
        "slot": "2",
        "type": "t_array(t_struct(Log)23_storage)dyn_storage"
      }
    ],
    "types": {
      "t_address": {
        "encoding": "inplace",
        "label": "address",
        "numberOfBytes": "20"
      },
      "t_array(t_struct(Book)10_storage)dyn_storage": {
        "base": "t_struct(Book)10_storage",
        "encoding": "dynamic_array",
        "label": "struct Library.Book[]",
        "numberOfBytes": "32"
      },
      "t_array(t_struct(Log)23_storage)dyn_storage": {
        "base": "t_struct(Log)23_storage",
        "encoding": "dynamic_array",
        "label": "struct Library.Log[]",
        "numberOfBytes": "32"
      },
      "t_bool": {
        "encoding": "inplace",
        "label": "bool",
        "numberOfBytes": "1"
      },
      "t_string_storage": {
        "encoding": "bytes",
        "label": "string",
        "numberOfBytes": "32"
      },
      "t_struct(Book)10_storage": {
        "encoding": "inplace",
        "label": "struct Library.Book",
        "members": [
          {
            "astId": 3,
            "contract": "contracts/Library.sol:Library",
            "label": "ISBN",
            "offset": 0,
            "slot": "0",
            "type": "t_address"
          },
          {
            "astId": 5,
            "contract": "contracts/Library.sol:Library",
            "label": "title",
            "offset": 0,
            "slot": "1",
            "type": "t_string_storage"
          },
          {
            "astId": 7,
            "contract": "contracts/Library.sol:Library",
            "label": "year",
            "offset": 0,
            "slot": "2",
            "type": "t_uint256"
          },
          {
            "astId": 9,
            "contract": "contracts/Library.sol:Library",
            "label": "author",
            "offset": 0,
            "slot": "3",
            "type": "t_string_storage"
          }
        ],
        "numberOfBytes": "128"
      },
      "t_struct(Log)23_storage": {
        "encoding": "inplace",
        "label": "struct Library.Log",
        "members": [
          {
            "astId": 18,
            "contract": "contracts/Library.sol:Library",
            "label": "action",
            "offset": 0,
            "slot": "0",
            "type": "t_string_storage"
          },
          {
            "astId": 20,
            "contract": "contracts/Library.sol:Library",
            "label": "ISBN",
            "offset": 0,
            "slot": "1",
            "type": "t_address"
          },
          {
            "astId": 22,
            "contract": "contracts/Library.sol:Library",
            "label": "success",
            "offset": 20,
            "slot": "1",
            "type": "t_bool"
          }
        ],
        "numberOfBytes": "64"
      },
      "t_uint256": {
        "encoding": "inplace",
        "label": "uint256",
        "numberOfBytes": "32"
      }
    }
  }
}